{
  "contractName": "EtherTrust",
  "abi": [
    {
      "anonymous": false,
      "inputs": [
        {
          "indexed": true,
          "internalType": "address",
          "name": "previousOwner",
          "type": "address"
        },
        {
          "indexed": true,
          "internalType": "address",
          "name": "newOwner",
          "type": "address"
        }
      ],
      "name": "OwnershipTransferred",
      "type": "event"
    },
    {
      "anonymous": false,
      "inputs": [],
      "name": "Pause",
      "type": "event"
    },
    {
      "anonymous": false,
      "inputs": [],
      "name": "Unpause",
      "type": "event"
    },
    {
      "anonymous": false,
      "inputs": [
        {
          "indexed": false,
          "internalType": "address",
          "name": "_testator",
          "type": "address"
        }
      ],
      "name": "logAlive",
      "type": "event"
    },
    {
      "anonymous": false,
      "inputs": [
        {
          "indexed": false,
          "internalType": "address",
          "name": "_sender",
          "type": "address"
        },
        {
          "indexed": false,
          "internalType": "address",
          "name": "_receiver",
          "type": "address"
        },
        {
          "indexed": false,
          "internalType": "uint256",
          "name": "_value",
          "type": "uint256"
        }
      ],
      "name": "logFailedPayment",
      "type": "event"
    },
    {
      "anonymous": false,
      "inputs": [
        {
          "indexed": false,
          "internalType": "address",
          "name": "_sender",
          "type": "address"
        },
        {
          "indexed": false,
          "internalType": "address",
          "name": "_receiver",
          "type": "address"
        },
        {
          "indexed": false,
          "internalType": "uint256",
          "name": "_value",
          "type": "uint256"
        }
      ],
      "name": "logPayment",
      "type": "event"
    },
    {
      "anonymous": false,
      "inputs": [
        {
          "indexed": false,
          "internalType": "address",
          "name": "_testator",
          "type": "address"
        },
        {
          "indexed": false,
          "internalType": "uint256",
          "name": "_index",
          "type": "uint256"
        }
      ],
      "name": "willCancelled",
      "type": "event"
    },
    {
      "anonymous": false,
      "inputs": [
        {
          "indexed": false,
          "internalType": "address",
          "name": "_testator",
          "type": "address"
        },
        {
          "indexed": false,
          "internalType": "uint256",
          "name": "_index",
          "type": "uint256"
        }
      ],
      "name": "willCreated",
      "type": "event"
    },
    {
      "anonymous": false,
      "inputs": [
        {
          "indexed": false,
          "internalType": "address",
          "name": "_testator",
          "type": "address"
        },
        {
          "indexed": false,
          "internalType": "uint256",
          "name": "_index",
          "type": "uint256"
        },
        {
          "indexed": false,
          "internalType": "address",
          "name": "_beneficiary",
          "type": "address"
        }
      ],
      "name": "willExecuted",
      "type": "event"
    },
    {
      "anonymous": false,
      "inputs": [
        {
          "indexed": false,
          "internalType": "address",
          "name": "_testator",
          "type": "address"
        },
        {
          "indexed": false,
          "internalType": "uint256",
          "name": "_index",
          "type": "uint256"
        }
      ],
      "name": "willUpdated",
      "type": "event"
    },
    {
      "stateMutability": "payable",
      "type": "fallback",
      "payable": true
    },
    {
      "inputs": [
        {
          "internalType": "address",
          "name": "",
          "type": "address"
        }
      ],
      "name": "lastAlive",
      "outputs": [
        {
          "internalType": "uint256",
          "name": "",
          "type": "uint256"
        }
      ],
      "stateMutability": "view",
      "type": "function",
      "constant": true
    },
    {
      "inputs": [],
      "name": "numTestators",
      "outputs": [
        {
          "internalType": "uint256",
          "name": "",
          "type": "uint256"
        }
      ],
      "stateMutability": "view",
      "type": "function",
      "constant": true
    },
    {
      "inputs": [],
      "name": "owner",
      "outputs": [
        {
          "internalType": "address",
          "name": "",
          "type": "address"
        }
      ],
      "stateMutability": "view",
      "type": "function",
      "constant": true
    },
    {
      "inputs": [],
      "name": "pause",
      "outputs": [],
      "stateMutability": "nonpayable",
      "type": "function"
    },
    {
      "inputs": [],
      "name": "paused",
      "outputs": [
        {
          "internalType": "bool",
          "name": "",
          "type": "bool"
        }
      ],
      "stateMutability": "view",
      "type": "function",
      "constant": true
    },
    {
      "inputs": [],
      "name": "renounceOwnership",
      "outputs": [],
      "stateMutability": "nonpayable",
      "type": "function"
    },
    {
      "inputs": [
        {
          "internalType": "uint256",
          "name": "",
          "type": "uint256"
        }
      ],
      "name": "testators",
      "outputs": [
        {
          "internalType": "address",
          "name": "",
          "type": "address"
        }
      ],
      "stateMutability": "view",
      "type": "function",
      "constant": true
    },
    {
      "inputs": [
        {
          "internalType": "address",
          "name": "newOwner",
          "type": "address"
        }
      ],
      "name": "transferOwnership",
      "outputs": [],
      "stateMutability": "nonpayable",
      "type": "function"
    },
    {
      "inputs": [],
      "name": "unpause",
      "outputs": [],
      "stateMutability": "nonpayable",
      "type": "function"
    },
    {
      "inputs": [
        {
          "internalType": "address",
          "name": "",
          "type": "address"
        },
        {
          "internalType": "uint256",
          "name": "",
          "type": "uint256"
        }
      ],
      "name": "wills",
      "outputs": [
        {
          "internalType": "uint256",
          "name": "value",
          "type": "uint256"
        },
        {
          "internalType": "uint256",
          "name": "reward",
          "type": "uint256"
        },
        {
          "internalType": "uint256",
          "name": "maturity",
          "type": "uint256"
        },
        {
          "internalType": "address payable",
          "name": "testator",
          "type": "address"
        },
        {
          "internalType": "address payable",
          "name": "beneficiary",
          "type": "address"
        }
      ],
      "stateMutability": "view",
      "type": "function",
      "constant": true
    },
    {
      "stateMutability": "payable",
      "type": "receive",
      "payable": true
    },
    {
      "inputs": [
        {
          "internalType": "uint256",
          "name": "_reward",
          "type": "uint256"
        },
        {
          "internalType": "uint256",
          "name": "_maturity",
          "type": "uint256"
        },
        {
          "internalType": "address payable",
          "name": "_beneficiary",
          "type": "address"
        }
      ],
      "name": "createWill",
      "outputs": [
        {
          "internalType": "uint256",
          "name": "_id",
          "type": "uint256"
        }
      ],
      "stateMutability": "payable",
      "type": "function",
      "payable": true
    },
    {
      "inputs": [],
      "name": "IAmAlive",
      "outputs": [
        {
          "internalType": "bool",
          "name": "_alive",
          "type": "bool"
        }
      ],
      "stateMutability": "nonpayable",
      "type": "function"
    },
    {
      "inputs": [
        {
          "internalType": "uint256",
          "name": "_id",
          "type": "uint256"
        },
        {
          "internalType": "uint256",
          "name": "_decrease",
          "type": "uint256"
        }
      ],
      "name": "changeReward",
      "outputs": [
        {
          "internalType": "bool",
          "name": "_updated",
          "type": "bool"
        }
      ],
      "stateMutability": "payable",
      "type": "function",
      "payable": true
    },
    {
      "inputs": [
        {
          "internalType": "uint256",
          "name": "_id",
          "type": "uint256"
        },
        {
          "internalType": "uint256",
          "name": "_decrease",
          "type": "uint256"
        }
      ],
      "name": "changeValue",
      "outputs": [
        {
          "internalType": "bool",
          "name": "_updated",
          "type": "bool"
        }
      ],
      "stateMutability": "payable",
      "type": "function",
      "payable": true
    },
    {
      "inputs": [
        {
          "internalType": "uint256",
          "name": "_id",
          "type": "uint256"
        },
        {
          "internalType": "address payable",
          "name": "_beneficiary",
          "type": "address"
        }
      ],
      "name": "changeBeneficiary",
      "outputs": [
        {
          "internalType": "bool",
          "name": "_updated",
          "type": "bool"
        }
      ],
      "stateMutability": "nonpayable",
      "type": "function"
    },
    {
      "inputs": [
        {
          "internalType": "uint256",
          "name": "_id",
          "type": "uint256"
        },
        {
          "internalType": "uint256",
          "name": "_maturity",
          "type": "uint256"
        }
      ],
      "name": "changeMaturity",
      "outputs": [
        {
          "internalType": "bool",
          "name": "_updated",
          "type": "bool"
        }
      ],
      "stateMutability": "nonpayable",
      "type": "function"
    },
    {
      "inputs": [
        {
          "internalType": "uint256",
          "name": "_id",
          "type": "uint256"
        }
      ],
      "name": "cancelWill",
      "outputs": [
        {
          "internalType": "bool",
          "name": "_cancelled",
          "type": "bool"
        }
      ],
      "stateMutability": "nonpayable",
      "type": "function"
    },
    {
      "inputs": [
        {
          "internalType": "address",
          "name": "_testator",
          "type": "address"
        },
        {
          "internalType": "uint256",
          "name": "_id",
          "type": "uint256"
        }
      ],
      "name": "executeWill",
      "outputs": [
        {
          "internalType": "bool",
          "name": "_executed",
          "type": "bool"
        }
      ],
      "stateMutability": "nonpayable",
      "type": "function"
    },
    {
      "inputs": [
        {
          "internalType": "address",
          "name": "_testator",
          "type": "address"
        }
      ],
      "name": "getWills",
      "outputs": [
        {
          "components": [
            {
              "internalType": "uint256",
              "name": "value",
              "type": "uint256"
            },
            {
              "internalType": "uint256",
              "name": "reward",
              "type": "uint256"
            },
            {
              "internalType": "uint256",
              "name": "maturity",
              "type": "uint256"
            },
            {
              "internalType": "address payable",
              "name": "testator",
              "type": "address"
            },
            {
              "internalType": "address payable",
              "name": "beneficiary",
              "type": "address"
            }
          ],
          "internalType": "struct EtherTrust.Will[]",
          "name": "",
          "type": "tuple[]"
        }
      ],
      "stateMutability": "view",
      "type": "function",
      "constant": true
    }
  ],
  "bytecode": "0x608060405260008060146101000a81548160ff0219169083151502179055503480156200002b57600080fd5b506200004c620000406200005960201b60201c565b6200006160201b60201c565b6001808190555062000125565b600033905090565b60008060009054906101000a900473ffffffffffffffffffffffffffffffffffffffff169050816000806101000a81548173ffffffffffffffffffffffffffffffffffffffff021916908373ffffffffffffffffffffffffffffffffffffffff1602179055508173ffffffffffffffffffffffffffffffffffffffff168173ffffffffffffffffffffffffffffffffffffffff167f8be0079c531659141344cd1fd0a4f28419497f9722a3daafe3b4186f6b6457e060405160405180910390a35050565b6139e780620001356000396000f3fe6080604052600436106101185760003560e01c8063756101a8116100a0578063e01c6fc311610064578063e01c6fc314610404578063e612a08e14610434578063ecf8870e1461045f578063edaf5ec61461049c578063f2fde38b146104d95761011f565b8063756101a8146103185780638456cb59146103555780638709b2e71461036c5780638da5cb5b1461039c578063b0070a30146103c75761011f565b80633f4ba83a116100e75780633f4ba83a14610245578063559b296a1461025c5780635c975abb1461029957806368acbfa5146102c4578063715018a6146103015761011f565b80631587e0a81461016c57806322dd171c146101a95780632e833d04146101ea5780633c5872771461021a5761011f565b3661011f57005b6000803690501461012f57600080fd5b7fe217485ab9065cf0d4f159bd440ef9840799740aa4d5f3da09fe004a8e35d96533303460405161016293929190613623565b60405180910390a1005b34801561017857600080fd5b50610193600480360381019061018e9190613205565b610502565b6040516101a091906136a5565b60405180910390f35b3480156101b557600080fd5b506101d060048036038101906101cb91906131c9565b610c98565b6040516101e195949392919061377b565b60405180910390f35b61020460048036038101906101ff91906132a6565b610d2b565b6040516102119190613760565b60405180910390f35b34801561022657600080fd5b5061022f6110d5565b60405161023c91906136a5565b60405180910390f35b34801561025157600080fd5b5061025a6111a5565b005b34801561026857600080fd5b50610283600480360381019061027e91906131c9565b611282565b60405161029091906136a5565b60405180910390f35b3480156102a557600080fd5b506102ae611d9e565b6040516102bb91906136a5565b60405180910390f35b3480156102d057600080fd5b506102eb60048036038101906102e69190613205565b611db1565b6040516102f891906135d1565b60405180910390f35b34801561030d57600080fd5b50610316611df0565b005b34801561032457600080fd5b5061033f600480360381019061033a919061326a565b611e78565b60405161034c91906136a5565b60405180910390f35b34801561036157600080fd5b5061036a6120a8565b005b6103866004803603810190610381919061326a565b612187565b60405161039391906136a5565b60405180910390f35b3480156103a857600080fd5b506103b16125f3565b6040516103be91906135d1565b60405180910390f35b3480156103d357600080fd5b506103ee60048036038101906103e9919061322e565b61261c565b6040516103fb91906136a5565b60405180910390f35b61041e6004803603810190610419919061326a565b612967565b60405161042b91906136a5565b60405180910390f35b34801561044057600080fd5b50610449612e17565b6040516104569190613760565b60405180910390f35b34801561046b57600080fd5b50610486600480360381019061048191906131a0565b612e1d565b6040516104939190613760565b60405180910390f35b3480156104a857600080fd5b506104c360048036038101906104be91906131a0565b612e35565b6040516104d09190613683565b60405180910390f35b3480156104e557600080fd5b5061050060048036038101906104fb91906131a0565b612f9d565b005b600033600260003373ffffffffffffffffffffffffffffffffffffffff1673ffffffffffffffffffffffffffffffffffffffff16815260200190815260200160002060008154811061057d577f4e487b7100000000000000000000000000000000000000000000000000000000600052603260045260246000fd5b906000526020600020906005020160030160009054906101000a900473ffffffffffffffffffffffffffffffffffffffff1673ffffffffffffffffffffffffffffffffffffffff163373ffffffffffffffffffffffffffffffffffffffff16146105e657600080fd5b60003373ffffffffffffffffffffffffffffffffffffffff16600260003373ffffffffffffffffffffffffffffffffffffffff1673ffffffffffffffffffffffffffffffffffffffff1681526020019081526020016000208581548110610676577f4e487b7100000000000000000000000000000000000000000000000000000000600052603260045260246000fd5b906000526020600020906005020160000154604051610694906135bc565b60006040518083038185875af1925050503d80600081146106d1576040519150601f19603f3d011682016040523d82523d6000602084013e6106d6565b606091505b505090508061071a576040517f08c379a0000000000000000000000000000000000000000000000000000000008152600401610711906136e0565b60405180910390fd5b7fe217485ab9065cf0d4f159bd440ef9840799740aa4d5f3da09fe004a8e35d9653033600260003373ffffffffffffffffffffffffffffffffffffffff1673ffffffffffffffffffffffffffffffffffffffff16815260200190815260200160002087815481106107b4577f4e487b7100000000000000000000000000000000000000000000000000000000600052603260045260246000fd5b9060005260206000209060050201600001546040516107d593929190613623565b60405180910390a17fee995398a46f3ee96c39189bb36313e6e3fdbe351952deae091b3a9a24cc8b25338560405161080e92919061365a565b60405180910390a160019250600260003373ffffffffffffffffffffffffffffffffffffffff1673ffffffffffffffffffffffffffffffffffffffff1681526020019081526020016000206001600260003373ffffffffffffffffffffffffffffffffffffffff1673ffffffffffffffffffffffffffffffffffffffff168152602001908152602001600020805490506108a89190613879565b815481106108df577f4e487b7100000000000000000000000000000000000000000000000000000000600052603260045260246000fd5b9060005260206000209060050201600260003373ffffffffffffffffffffffffffffffffffffffff1673ffffffffffffffffffffffffffffffffffffffff1681526020019081526020016000208581548110610964577f4e487b7100000000000000000000000000000000000000000000000000000000600052603260045260246000fd5b90600052602060002090600502016000820154816000015560018201548160010155600282015481600201556003820160009054906101000a900473ffffffffffffffffffffffffffffffffffffffff168160030160006101000a81548173ffffffffffffffffffffffffffffffffffffffff021916908373ffffffffffffffffffffffffffffffffffffffff1602179055506004820160009054906101000a900473ffffffffffffffffffffffffffffffffffffffff168160040160006101000a81548173ffffffffffffffffffffffffffffffffffffffff021916908373ffffffffffffffffffffffffffffffffffffffff160217905550905050600260003373ffffffffffffffffffffffffffffffffffffffff1673ffffffffffffffffffffffffffffffffffffffff1681526020019081526020016000206001600260003373ffffffffffffffffffffffffffffffffffffffff1673ffffffffffffffffffffffffffffffffffffffff16815260200190815260200160002080549050610aef9190613879565b81548110610b26577f4e487b7100000000000000000000000000000000000000000000000000000000600052603260045260246000fd5b9060005260206000209060050201600080820160009055600182016000905560028201600090556003820160006101000a81549073ffffffffffffffffffffffffffffffffffffffff02191690556004820160006101000a81549073ffffffffffffffffffffffffffffffffffffffff02191690555050600260003373ffffffffffffffffffffffffffffffffffffffff1673ffffffffffffffffffffffffffffffffffffffff168152602001908152602001600020805480610c12577f4e487b7100000000000000000000000000000000000000000000000000000000600052603160045260246000fd5b6001900381819060005260206000209060050201600080820160009055600182016000905560028201600090556003820160006101000a81549073ffffffffffffffffffffffffffffffffffffffff02191690556004820160006101000a81549073ffffffffffffffffffffffffffffffffffffffff0219169055505090555050919050565b60026020528160005260406000208181548110610cb457600080fd5b9060005260206000209060050201600091509150508060000154908060010154908060020154908060030160009054906101000a900473ffffffffffffffffffffffffffffffffffffffff16908060040160009054906101000a900473ffffffffffffffffffffffffffffffffffffffff16905085565b60003460008111610d3b57600080fd5b600060149054906101000a900460ff1615610d5557600080fd5b34851115610d98576040517f08c379a0000000000000000000000000000000000000000000000000000000008152600401610d8f90613700565b60405180910390fd5b7fe217485ab9065cf0d4f159bd440ef9840799740aa4d5f3da09fe004a8e35d965333034604051610dcb93929190613623565b60405180910390a16000600360003373ffffffffffffffffffffffffffffffffffffffff1673ffffffffffffffffffffffffffffffffffffffff168152602001908152602001600020541415610e99576004339080600181540180825580915050600190039060005260206000200160009091909190916101000a81548173ffffffffffffffffffffffffffffffffffffffff021916908373ffffffffffffffffffffffffffffffffffffffff160217905550600160056000828254610e919190613823565b925050819055505b42600360003373ffffffffffffffffffffffffffffffffffffffff1673ffffffffffffffffffffffffffffffffffffffff168152602001908152602001600020819055507f0e4b7301b70ce3408143a2322a3f4a9b40f87b4baaf92898623bbce0835a36bc33604051610f0c91906135d1565b60405180910390a1600260003373ffffffffffffffffffffffffffffffffffffffff1673ffffffffffffffffffffffffffffffffffffffff168152602001908152602001600020805490509150600260003373ffffffffffffffffffffffffffffffffffffffff1673ffffffffffffffffffffffffffffffffffffffff1681526020019081526020016000206040518060a001604052808734610faf9190613879565b81526020018781526020018681526020013373ffffffffffffffffffffffffffffffffffffffff1681526020018573ffffffffffffffffffffffffffffffffffffffff16815250908060018154018082558091505060019003906000526020600020906005020160009091909190915060008201518160000155602082015181600101556040820151816002015560608201518160030160006101000a81548173ffffffffffffffffffffffffffffffffffffffff021916908373ffffffffffffffffffffffffffffffffffffffff16021790555060808201518160040160006101000a81548173ffffffffffffffffffffffffffffffffffffffff021916908373ffffffffffffffffffffffffffffffffffffffff1602179055505050509392505050565b600080600360003373ffffffffffffffffffffffffffffffffffffffff1673ffffffffffffffffffffffffffffffffffffffff16815260200190815260200160002054141561112357600080fd5b7f0e4b7301b70ce3408143a2322a3f4a9b40f87b4baaf92898623bbce0835a36bc3360405161115291906135d1565b60405180910390a16001905042600360003373ffffffffffffffffffffffffffffffffffffffff1673ffffffffffffffffffffffffffffffffffffffff1681526020019081526020016000208190555090565b6111ad613095565b73ffffffffffffffffffffffffffffffffffffffff166111cb6125f3565b73ffffffffffffffffffffffffffffffffffffffff1614611221576040517f08c379a000000000000000000000000000000000000000000000000000000000815260040161121890613720565b60405180910390fd5b600060149054906101000a900460ff1661123a57600080fd5b60008060146101000a81548160ff0219169083151502179055507f7805862f689e2f13df9f062ff482ad3ad112aca9e0847911ed832e158c525b3360405160405180910390a1565b60008282600260008373ffffffffffffffffffffffffffffffffffffffff1673ffffffffffffffffffffffffffffffffffffffff16815260200190815260200160002081815481106112fd577f4e487b7100000000000000000000000000000000000000000000000000000000600052603260045260246000fd5b906000526020600020906005020160020154600360008473ffffffffffffffffffffffffffffffffffffffff1673ffffffffffffffffffffffffffffffffffffffff168152602001908152602001600020546113599190613823565b421161136457600080fd5b600260015414156113aa576040517f08c379a00000000000000000000000000000000000000000000000000000000081526004016113a190613740565b60405180910390fd5b6002600181905550600060149054906101000a900460ff16156113cc57600080fd5b6000600260008773ffffffffffffffffffffffffffffffffffffffff1673ffffffffffffffffffffffffffffffffffffffff1681526020019081526020016000208581548110611445577f4e487b7100000000000000000000000000000000000000000000000000000000600052603260045260246000fd5b906000526020600020906005020160040160009054906101000a900473ffffffffffffffffffffffffffffffffffffffff1673ffffffffffffffffffffffffffffffffffffffff16600260008873ffffffffffffffffffffffffffffffffffffffff1673ffffffffffffffffffffffffffffffffffffffff1681526020019081526020016000208681548110611504577f4e487b7100000000000000000000000000000000000000000000000000000000600052603260045260246000fd5b906000526020600020906005020160000154604051611522906135bc565b60006040518083038185875af1925050503d806000811461155f576040519150601f19603f3d011682016040523d82523d6000602084013e611564565b606091505b50509050806115a8576040517f08c379a000000000000000000000000000000000000000000000000000000000815260040161159f906136e0565b60405180910390fd5b7fe217485ab9065cf0d4f159bd440ef9840799740aa4d5f3da09fe004a8e35d96530600260008973ffffffffffffffffffffffffffffffffffffffff1673ffffffffffffffffffffffffffffffffffffffff1681526020019081526020016000208781548110611641577f4e487b7100000000000000000000000000000000000000000000000000000000600052603260045260246000fd5b906000526020600020906005020160040160009054906101000a900473ffffffffffffffffffffffffffffffffffffffff16600260008a73ffffffffffffffffffffffffffffffffffffffff1673ffffffffffffffffffffffffffffffffffffffff16815260200190815260200160002088815481106116ea577f4e487b7100000000000000000000000000000000000000000000000000000000600052603260045260246000fd5b90600052602060002090600502016000015460405161170b939291906135ec565b60405180910390a160003373ffffffffffffffffffffffffffffffffffffffff16600260008973ffffffffffffffffffffffffffffffffffffffff1673ffffffffffffffffffffffffffffffffffffffff16815260200190815260200160002087815481106117a3577f4e487b7100000000000000000000000000000000000000000000000000000000600052603260045260246000fd5b9060005260206000209060050201600101546040516117c1906135bc565b60006040518083038185875af1925050503d80600081146117fe576040519150601f19603f3d011682016040523d82523d6000602084013e611803565b606091505b5050905080611847576040517f08c379a000000000000000000000000000000000000000000000000000000000815260040161183e906136e0565b60405180910390fd5b7fe217485ab9065cf0d4f159bd440ef9840799740aa4d5f3da09fe004a8e35d9653033600260008b73ffffffffffffffffffffffffffffffffffffffff1673ffffffffffffffffffffffffffffffffffffffff16815260200190815260200160002089815481106118e1577f4e487b7100000000000000000000000000000000000000000000000000000000600052603260045260246000fd5b90600052602060002090600502016001015460405161190293929190613623565b60405180910390a18180156119145750805b9450600260008873ffffffffffffffffffffffffffffffffffffffff1673ffffffffffffffffffffffffffffffffffffffff1681526020019081526020016000206001600260008a73ffffffffffffffffffffffffffffffffffffffff1673ffffffffffffffffffffffffffffffffffffffff168152602001908152602001600020805490506119a49190613879565b815481106119db577f4e487b7100000000000000000000000000000000000000000000000000000000600052603260045260246000fd5b9060005260206000209060050201600260008973ffffffffffffffffffffffffffffffffffffffff1673ffffffffffffffffffffffffffffffffffffffff1681526020019081526020016000208781548110611a60577f4e487b7100000000000000000000000000000000000000000000000000000000600052603260045260246000fd5b90600052602060002090600502016000820154816000015560018201548160010155600282015481600201556003820160009054906101000a900473ffffffffffffffffffffffffffffffffffffffff168160030160006101000a81548173ffffffffffffffffffffffffffffffffffffffff021916908373ffffffffffffffffffffffffffffffffffffffff1602179055506004820160009054906101000a900473ffffffffffffffffffffffffffffffffffffffff168160040160006101000a81548173ffffffffffffffffffffffffffffffffffffffff021916908373ffffffffffffffffffffffffffffffffffffffff160217905550905050600260008873ffffffffffffffffffffffffffffffffffffffff1673ffffffffffffffffffffffffffffffffffffffff1681526020019081526020016000206001600260008a73ffffffffffffffffffffffffffffffffffffffff1673ffffffffffffffffffffffffffffffffffffffff16815260200190815260200160002080549050611beb9190613879565b81548110611c22577f4e487b7100000000000000000000000000000000000000000000000000000000600052603260045260246000fd5b9060005260206000209060050201600080820160009055600182016000905560028201600090556003820160006101000a81549073ffffffffffffffffffffffffffffffffffffffff02191690556004820160006101000a81549073ffffffffffffffffffffffffffffffffffffffff02191690555050600260008873ffffffffffffffffffffffffffffffffffffffff1673ffffffffffffffffffffffffffffffffffffffff168152602001908152602001600020805480611d0e577f4e487b7100000000000000000000000000000000000000000000000000000000600052603160045260246000fd5b6001900381819060005260206000209060050201600080820160009055600182016000905560028201600090556003820160006101000a81549073ffffffffffffffffffffffffffffffffffffffff02191690556004820160006101000a81549073ffffffffffffffffffffffffffffffffffffffff021916905550509055505060018081905550505092915050565b600060149054906101000a900460ff1681565b60048181548110611dc157600080fd5b906000526020600020016000915054906101000a900473ffffffffffffffffffffffffffffffffffffffff1681565b611df8613095565b73ffffffffffffffffffffffffffffffffffffffff16611e166125f3565b73ffffffffffffffffffffffffffffffffffffffff1614611e6c576040517f08c379a0000000000000000000000000000000000000000000000000000000008152600401611e6390613720565b60405180910390fd5b611e76600061309d565b565b600033600260003373ffffffffffffffffffffffffffffffffffffffff1673ffffffffffffffffffffffffffffffffffffffff168152602001908152602001600020600081548110611ef3577f4e487b7100000000000000000000000000000000000000000000000000000000600052603260045260246000fd5b906000526020600020906005020160030160009054906101000a900473ffffffffffffffffffffffffffffffffffffffff1673ffffffffffffffffffffffffffffffffffffffff163373ffffffffffffffffffffffffffffffffffffffff1614611f5c57600080fd5b42600360003373ffffffffffffffffffffffffffffffffffffffff1673ffffffffffffffffffffffffffffffffffffffff168152602001908152602001600020819055507f0e4b7301b70ce3408143a2322a3f4a9b40f87b4baaf92898623bbce0835a36bc33604051611fcf91906135d1565b60405180910390a182600260003373ffffffffffffffffffffffffffffffffffffffff1673ffffffffffffffffffffffffffffffffffffffff168152602001908152602001600020858154811061204f577f4e487b7100000000000000000000000000000000000000000000000000000000600052603260045260246000fd5b9060005260206000209060050201600201819055507fb372ed7d771aa8d1274c70763a064cbc59b5d6894d6f0d7a2c9102b35a6c9bf3338560405161209592919061365a565b60405180910390a1600191505092915050565b6120b0613095565b73ffffffffffffffffffffffffffffffffffffffff166120ce6125f3565b73ffffffffffffffffffffffffffffffffffffffff1614612124576040517f08c379a000000000000000000000000000000000000000000000000000000000815260040161211b90613720565b60405180910390fd5b600060149054906101000a900460ff161561213e57600080fd5b6001600060146101000a81548160ff0219169083151502179055507f6985a02210a168e66602d3235cb6db0e70f92b3ba4d376a33c0f3d9434bff62560405160405180910390a1565b600033600260003373ffffffffffffffffffffffffffffffffffffffff1673ffffffffffffffffffffffffffffffffffffffff168152602001908152602001600020600081548110612202577f4e487b7100000000000000000000000000000000000000000000000000000000600052603260045260246000fd5b906000526020600020906005020160030160009054906101000a900473ffffffffffffffffffffffffffffffffffffffff1673ffffffffffffffffffffffffffffffffffffffff163373ffffffffffffffffffffffffffffffffffffffff161461226b57600080fd5b7f0e4b7301b70ce3408143a2322a3f4a9b40f87b4baaf92898623bbce0835a36bc3360405161229a91906135d1565b60405180910390a17fb372ed7d771aa8d1274c70763a064cbc59b5d6894d6f0d7a2c9102b35a6c9bf333856040516122d392919061365a565b60405180910390a16001915060003411156123c75734600260003373ffffffffffffffffffffffffffffffffffffffff1673ffffffffffffffffffffffffffffffffffffffff1681526020019081526020016000208581548110612360577f4e487b7100000000000000000000000000000000000000000000000000000000600052603260045260246000fd5b906000526020600020906005020160000160008282546123809190613823565b925050819055507fe217485ab9065cf0d4f159bd440ef9840799740aa4d5f3da09fe004a8e35d9653330346040516123ba93929190613623565b60405180910390a16125ec565b60008311801561245e5750600260003373ffffffffffffffffffffffffffffffffffffffff1673ffffffffffffffffffffffffffffffffffffffff1681526020019081526020016000208481548110612449577f4e487b7100000000000000000000000000000000000000000000000000000000600052603260045260246000fd5b90600052602060002090600502016000015483105b156125eb5782600260003373ffffffffffffffffffffffffffffffffffffffff1673ffffffffffffffffffffffffffffffffffffffff16815260200190815260200160002085815481106124db577f4e487b7100000000000000000000000000000000000000000000000000000000600052603260045260246000fd5b906000526020600020906005020160000160008282546124fb9190613879565b9250508190555060003373ffffffffffffffffffffffffffffffffffffffff1684604051612528906135bc565b60006040518083038185875af1925050503d8060008114612565576040519150601f19603f3d011682016040523d82523d6000602084013e61256a565b606091505b50509050806125ae576040517f08c379a00000000000000000000000000000000000000000000000000000000081526004016125a5906136e0565b60405180910390fd5b7fe217485ab9065cf0d4f159bd440ef9840799740aa4d5f3da09fe004a8e35d9653033866040516125e193929190613623565b60405180910390a1505b5b5092915050565b60008060009054906101000a900473ffffffffffffffffffffffffffffffffffffffff16905090565b600033600260003373ffffffffffffffffffffffffffffffffffffffff1673ffffffffffffffffffffffffffffffffffffffff168152602001908152602001600020600081548110612697577f4e487b7100000000000000000000000000000000000000000000000000000000600052603260045260246000fd5b906000526020600020906005020160030160009054906101000a900473ffffffffffffffffffffffffffffffffffffffff1673ffffffffffffffffffffffffffffffffffffffff163373ffffffffffffffffffffffffffffffffffffffff161461270057600080fd5b8273ffffffffffffffffffffffffffffffffffffffff16600260003373ffffffffffffffffffffffffffffffffffffffff1673ffffffffffffffffffffffffffffffffffffffff168152602001908152602001600020858154811061278e577f4e487b7100000000000000000000000000000000000000000000000000000000600052603260045260246000fd5b906000526020600020906005020160040160009054906101000a900473ffffffffffffffffffffffffffffffffffffffff1673ffffffffffffffffffffffffffffffffffffffff1614156127e157600080fd5b42600360003373ffffffffffffffffffffffffffffffffffffffff1673ffffffffffffffffffffffffffffffffffffffff168152602001908152602001600020819055507f0e4b7301b70ce3408143a2322a3f4a9b40f87b4baaf92898623bbce0835a36bc3360405161285491906135d1565b60405180910390a182600260003373ffffffffffffffffffffffffffffffffffffffff1673ffffffffffffffffffffffffffffffffffffffff16815260200190815260200160002085815481106128d4577f4e487b7100000000000000000000000000000000000000000000000000000000600052603260045260246000fd5b906000526020600020906005020160040160006101000a81548173ffffffffffffffffffffffffffffffffffffffff021916908373ffffffffffffffffffffffffffffffffffffffff1602179055507fb372ed7d771aa8d1274c70763a064cbc59b5d6894d6f0d7a2c9102b35a6c9bf3338560405161295492919061365a565b60405180910390a1600191505092915050565b600033600260003373ffffffffffffffffffffffffffffffffffffffff1673ffffffffffffffffffffffffffffffffffffffff1681526020019081526020016000206000815481106129e2577f4e487b7100000000000000000000000000000000000000000000000000000000600052603260045260246000fd5b906000526020600020906005020160030160009054906101000a900473ffffffffffffffffffffffffffffffffffffffff1673ffffffffffffffffffffffffffffffffffffffff163373ffffffffffffffffffffffffffffffffffffffff1614612a4b57600080fd5b42600360003373ffffffffffffffffffffffffffffffffffffffff1673ffffffffffffffffffffffffffffffffffffffff168152602001908152602001600020819055507f0e4b7301b70ce3408143a2322a3f4a9b40f87b4baaf92898623bbce0835a36bc33604051612abe91906135d1565b60405180910390a17fb372ed7d771aa8d1274c70763a064cbc59b5d6894d6f0d7a2c9102b35a6c9bf33385604051612af792919061365a565b60405180910390a1600191506000341115612beb5734600260003373ffffffffffffffffffffffffffffffffffffffff1673ffffffffffffffffffffffffffffffffffffffff1681526020019081526020016000208581548110612b84577f4e487b7100000000000000000000000000000000000000000000000000000000600052603260045260246000fd5b90600052602060002090600502016001016000828254612ba49190613823565b925050819055507fe217485ab9065cf0d4f159bd440ef9840799740aa4d5f3da09fe004a8e35d965333034604051612bde93929190613623565b60405180910390a1612e10565b600083118015612c825750600260003373ffffffffffffffffffffffffffffffffffffffff1673ffffffffffffffffffffffffffffffffffffffff1681526020019081526020016000208481548110612c6d577f4e487b7100000000000000000000000000000000000000000000000000000000600052603260045260246000fd5b90600052602060002090600502016001015483105b15612e0f5782600260003373ffffffffffffffffffffffffffffffffffffffff1673ffffffffffffffffffffffffffffffffffffffff1681526020019081526020016000208581548110612cff577f4e487b7100000000000000000000000000000000000000000000000000000000600052603260045260246000fd5b90600052602060002090600502016001016000828254612d1f9190613879565b9250508190555060003373ffffffffffffffffffffffffffffffffffffffff1684604051612d4c906135bc565b60006040518083038185875af1925050503d8060008114612d89576040519150601f19603f3d011682016040523d82523d6000602084013e612d8e565b606091505b5050905080612dd2576040517f08c379a0000000000000000000000000000000000000000000000000000000008152600401612dc9906136e0565b60405180910390fd5b7fe217485ab9065cf0d4f159bd440ef9840799740aa4d5f3da09fe004a8e35d965303386604051612e0593929190613623565b60405180910390a1505b5b5092915050565b60055481565b60036020528060005260406000206000915090505481565b6060600260008373ffffffffffffffffffffffffffffffffffffffff1673ffffffffffffffffffffffffffffffffffffffff168152602001908152602001600020805480602002602001604051908101604052809291908181526020016000905b82821015612f9257838290600052602060002090600502016040518060a00160405290816000820154815260200160018201548152602001600282015481526020016003820160009054906101000a900473ffffffffffffffffffffffffffffffffffffffff1673ffffffffffffffffffffffffffffffffffffffff1673ffffffffffffffffffffffffffffffffffffffff1681526020016004820160009054906101000a900473ffffffffffffffffffffffffffffffffffffffff1673ffffffffffffffffffffffffffffffffffffffff1673ffffffffffffffffffffffffffffffffffffffff168152505081526020019060010190612e96565b505050509050919050565b612fa5613095565b73ffffffffffffffffffffffffffffffffffffffff16612fc36125f3565b73ffffffffffffffffffffffffffffffffffffffff1614613019576040517f08c379a000000000000000000000000000000000000000000000000000000000815260040161301090613720565b60405180910390fd5b600073ffffffffffffffffffffffffffffffffffffffff168173ffffffffffffffffffffffffffffffffffffffff161415613089576040517f08c379a0000000000000000000000000000000000000000000000000000000008152600401613080906136c0565b60405180910390fd5b6130928161309d565b50565b600033905090565b60008060009054906101000a900473ffffffffffffffffffffffffffffffffffffffff169050816000806101000a81548173ffffffffffffffffffffffffffffffffffffffff021916908373ffffffffffffffffffffffffffffffffffffffff1602179055508173ffffffffffffffffffffffffffffffffffffffff168173ffffffffffffffffffffffffffffffffffffffff167f8be0079c531659141344cd1fd0a4f28419497f9722a3daafe3b4186f6b6457e060405160405180910390a35050565b6000813590506131708161396c565b92915050565b60008135905061318581613983565b92915050565b60008135905061319a8161399a565b92915050565b6000602082840312156131b257600080fd5b60006131c084828501613161565b91505092915050565b600080604083850312156131dc57600080fd5b60006131ea85828601613161565b92505060206131fb8582860161318b565b9150509250929050565b60006020828403121561321757600080fd5b60006132258482850161318b565b91505092915050565b6000806040838503121561324157600080fd5b600061324f8582860161318b565b925050602061326085828601613176565b9150509250929050565b6000806040838503121561327d57600080fd5b600061328b8582860161318b565b925050602061329c8582860161318b565b9150509250929050565b6000806000606084860312156132bb57600080fd5b60006132c98682870161318b565b93505060206132da8682870161318b565b92505060406132eb86828701613176565b9150509250925092565b60006133018383613536565b60a08301905092915050565b61331681613907565b82525050565b613325816138bf565b82525050565b613334816138bf565b82525050565b613343816138ad565b82525050565b6000613354826137de565b61335e81856137f6565b9350613369836137ce565b8060005b8381101561339a57815161338188826132f5565b975061338c836137e9565b92505060018101905061336d565b5085935050505092915050565b6133b0816138d1565b82525050565b60006133c3602683613812565b91507f4f776e61626c653a206e6577206f776e657220697320746865207a65726f206160008301527f64647265737300000000000000000000000000000000000000000000000000006020830152604082019050919050565b6000613429601483613812565b91507f4661696c656420746f2073656e642045746865720000000000000000000000006000830152602082019050919050565b6000613469601883613812565b91507f496e73756666696369656e742066756e64732073656e742e00000000000000006000830152602082019050919050565b60006134a9602083613812565b91507f4f776e61626c653a2063616c6c6572206973206e6f7420746865206f776e65726000830152602082019050919050565b60006134e9600083613807565b9150600082019050919050565b6000613503601f83613812565b91507f5265656e7472616e637947756172643a207265656e7472616e742063616c6c006000830152602082019050919050565b60a08201600082015161354c600085018261359e565b50602082015161355f602085018261359e565b506040820151613572604085018261359e565b506060820151613585606085018261331c565b506080820151613598608085018261331c565b50505050565b6135a7816138fd565b82525050565b6135b6816138fd565b82525050565b60006135c7826134dc565b9150819050919050565b60006020820190506135e6600083018461333a565b92915050565b6000606082019050613601600083018661333a565b61360e602083018561330d565b61361b60408301846135ad565b949350505050565b6000606082019050613638600083018661333a565b613645602083018561333a565b61365260408301846135ad565b949350505050565b600060408201905061366f600083018561333a565b61367c60208301846135ad565b9392505050565b6000602082019050818103600083015261369d8184613349565b905092915050565b60006020820190506136ba60008301846133a7565b92915050565b600060208201905081810360008301526136d9816133b6565b9050919050565b600060208201905081810360008301526136f98161341c565b9050919050565b600060208201905081810360008301526137198161345c565b9050919050565b600060208201905081810360008301526137398161349c565b9050919050565b60006020820190508181036000830152613759816134f6565b9050919050565b600060208201905061377560008301846135ad565b92915050565b600060a08201905061379060008301886135ad565b61379d60208301876135ad565b6137aa60408301866135ad565b6137b7606083018561332b565b6137c4608083018461332b565b9695505050505050565b6000819050602082019050919050565b600081519050919050565b6000602082019050919050565b600082825260208201905092915050565b600081905092915050565b600082825260208201905092915050565b600061382e826138fd565b9150613839836138fd565b9250827fffffffffffffffffffffffffffffffffffffffffffffffffffffffffffffffff0382111561386e5761386d61393d565b5b828201905092915050565b6000613884826138fd565b915061388f836138fd565b9250828210156138a2576138a161393d565b5b828203905092915050565b60006138b8826138dd565b9050919050565b60006138ca826138dd565b9050919050565b60008115159050919050565b600073ffffffffffffffffffffffffffffffffffffffff82169050919050565b6000819050919050565b600061391282613919565b9050919050565b60006139248261392b565b9050919050565b6000613936826138dd565b9050919050565b7f4e487b7100000000000000000000000000000000000000000000000000000000600052601160045260246000fd5b613975816138ad565b811461398057600080fd5b50565b61398c816138bf565b811461399757600080fd5b50565b6139a3816138fd565b81146139ae57600080fd5b5056fea264697066735822122043d7d0ae781f4e6311a09c3d32fc6bc01a080b057873d4ec6224c12ba38c672b64736f6c63430008000033",
  "immutableReferences": {},
  "source": "// SPDX-License-Identifier: CC-BY-SA-4.0\npragma solidity ^0.8.0;\n/**\n* @title EtherTrust\n* @author Nassim Dehouche\n* @notice This contract can create, modify and execute wills in ethereum\n* @dev All function calls are currently implemented without side effects\n*/\nimport \"./Pausable.sol\";\nimport \"./ReentrancyGuard.sol\";\nimport \"./Ownable.sol\";\n\n\ncontract EtherTrust is Ownable, Pausable, ReentrancyGuard  {\n/**\n* @dev SafeMath is generally not needed starting with Solidity 0.8, since the compiler now has built in overflow checking.\n*/\n\nevent willCreated(address _testator, uint _index); // @dev Will creation event\nevent willUpdated(address _testator, uint _index); // @dev Will update event\nevent willCancelled(address _testator, uint _index); // @dev Will cancellation event\nevent logAlive(address _testator); // @dev Sign of life event\nevent willExecuted(address _testator, uint _index, address _beneficiary); // @dev Will execution event\nevent logPayment(address _sender, address _receiver, uint _value); // @dev Payment log\nevent logFailedPayment(address _sender, address _receiver, uint _value); // @dev Payment failure log\n\n\nmodifier isNotZero(uint _value){ // @dev Wills cannot have value zero\n     require(_value>0); \n    _;   \n}\n\n\nmodifier isTestator(address _caller) {  // @dev Checks that message sender owns the will\n    require(msg.sender==wills[msg.sender][0].testator); \n    _;\n  }\nmodifier isBeneficiary(address _caller) { // @dev Checks that message sender is beneficiary, might be useful later\n    require(msg.sender==wills[msg.sender][0].beneficiary); \n    _;\n  }\n  \nmodifier isMature(address _testator, uint _id){ // @dev Checks that a will reached maturity\n     require(block.timestamp>lastAlive[_testator]+wills[_testator][_id].maturity); \n    _;   \n    \n}\n\nmodifier isValidUpdate(uint _newValue, uint _newReward) { // @dev Checks that a change to a will is valid\n    require(msg.sender==wills[msg.sender][0].testator); \n    _;\n  }\n\n struct Will{ // @dev The will struct\n  uint value;\n  uint reward;\n  uint maturity;\n  address payable testator;\n  address payable beneficiary;\n  }\n\nmapping(address => Will[]) public wills; // @dev Links testators with an array of their wills\nmapping(address => uint) public lastAlive; // @dev Last time a testator gave sign of life\naddress[] public testators; // @dev Keeps track of all testators to list mature will on front-end\nuint public numTestators; // @dev Keeps track of all testators to list mature will on front-end\n\nreceive() external payable { \n}\n\nfallback() external payable {\nrequire(msg.data.length == 0); \nemit logPayment(msg.sender, address(this), msg.value);\n//@dev Check data length in fallback functions\n//From https://github.com/ConsenSys/smart-contract-best-practices/blob/master/docs/recommendations.md:\n//Since the fallback functions is not only called for plain ether transfers (without data) but also when no other function matches, \n//you should check that the data is empty if the fallback function is intended to be used only for the purpose of logging received Ether. \n//Otherwise, callers will not notice if your contract is used incorrectly and functions that do not exist are called\n}\n\n  \nfunction createWill(uint _reward, uint _maturity,  address payable _beneficiary) // @dev Will creation function\npayable \npublic  \nisNotZero(msg.value)\nwhenNotPaused\nreturns (uint _id) { // @dev Return the id of the created will among all the wills of a testator\nrequire(_reward <= msg.value, \"Insufficient funds sent.\");    \nemit logPayment(msg.sender, address(this), msg.value);\n\n\nif (lastAlive[msg.sender]==0){ // @dev Checks whether this is a new testator\ntestators.push(msg.sender);   \nnumTestators+=1;\n}\n\n\nlastAlive[msg.sender]= block.timestamp; //@dev Updates the testator's date of last sign of life\nemit logAlive(msg.sender);\n\n_id= wills[msg.sender].length;\nwills[msg.sender].push(Will({\nvalue: msg.value-_reward, \nreward:_reward,\nmaturity: _maturity, \ntestator: payable(msg.sender), \nbeneficiary: _beneficiary\n}));\n}\n\nfunction IAmAlive() //@dev Updates the testator's date of last sign of life\npublic \nreturns (bool _alive)\n{\nrequire(lastAlive[msg.sender]!=0);\nemit logAlive(msg.sender);\n_alive=true;\nlastAlive[msg.sender]= block.timestamp;\n\n}\n\nfunction changeReward(uint _id, uint _decrease) \n//@dev Changes the reward associated with a will, decrease will have a non-zero value if the testator \n//wants to decrease the reward. Otherwise, it is increased.\npayable\npublic \nisTestator(msg.sender)\nreturns (bool _updated)\n{\n    \nlastAlive[msg.sender]= block.timestamp;  //@dev Updates the testator's date of last sign of life\nemit logAlive(msg.sender);\nemit willUpdated(msg.sender, _id);\n_updated=true;   \n\nif (msg.value>0){\nwills[msg.sender][_id].reward+=msg.value;   \nemit logPayment(msg.sender, address(this), msg.value);\n}\nelse if (_decrease>0 && _decrease< wills[msg.sender][_id].reward){\nwills[msg.sender][_id].reward-=_decrease;\n(bool sent, ) = msg.sender.call{value: _decrease}(\"\");\n        require(sent, \"Failed to send Ether\");\n    emit logPayment(address(this), msg.sender, _decrease);\n    \n}\n}\n\nfunction changeValue(uint _id, uint _decrease) \n//@dev Changes the value associated with a will, decrease will have a non-zero value if the testator \n//wants to decrease the reward. Otherwise, it is increased.\npayable\npublic \nisTestator(msg.sender)\nreturns (bool _updated)\n{\nemit logAlive(msg.sender);\nemit willUpdated(msg.sender, _id);\n_updated=true;   \n\nif (msg.value>0){\nwills[msg.sender][_id].value+=msg.value;   \nemit logPayment(msg.sender, address(this), msg.value);\n}\nelse if (_decrease>0 && _decrease< wills[msg.sender][_id].value){\nwills[msg.sender][_id].value-=_decrease;\n(bool sent, ) = msg.sender.call{value: _decrease}(\"\");\n        require(sent, \"Failed to send Ether\");\n    emit logPayment(address(this), msg.sender, _decrease);\n    \n}\n}\n\n\n\n\n\nfunction changeBeneficiary(uint _id, address payable _beneficiary) \n//@dev Changes the beneficiary associated with a will.\npublic \nisTestator(msg.sender)\nreturns (bool _updated)\n{\nrequire(wills[msg.sender][_id].beneficiary!=_beneficiary);\nlastAlive[msg.sender]= block.timestamp;\nemit logAlive(msg.sender);\nwills[msg.sender][_id].beneficiary=_beneficiary;\nemit willUpdated(msg.sender, _id);\n_updated=true;    \n}\n\nfunction changeMaturity(uint _id, uint _maturity) \n//@dev Changes the maturity associated with a will.\npublic \nisTestator(msg.sender)\nreturns (bool _updated)\n{\nlastAlive[msg.sender]= block.timestamp;\nemit logAlive(msg.sender);\nwills[msg.sender][_id].maturity=_maturity;\nemit willUpdated(msg.sender, _id);\n_updated=true;    \n}\n\n\n\n\n\n\nfunction cancelWill(uint _id) \n//@dev Cancels a will\npublic \nisTestator(msg.sender)\nreturns (bool _cancelled)\n{\n(bool sent, ) = msg.sender.call{value: wills[msg.sender][_id].value}(\"\");\n        require(sent, \"Failed to send Ether\");\n    emit logPayment(address(this), msg.sender, wills[msg.sender][_id].value); //@dev Refunds testator\n    \nemit willCancelled(msg.sender, _id);\n_cancelled=true;\n//@dev Rearrange indexing of the testator's wills array\nwills[msg.sender][_id] = wills[msg.sender][wills[msg.sender].length - 1];\ndelete wills[msg.sender][wills[msg.sender].length - 1];\nwills[msg.sender].pop();\n\n\n\n}\n\n\nfunction executeWill(address _testator, uint _id) \n//@dev Executes a will if mature\npublic \nisMature(_testator,_id)\nnonReentrant()\nwhenNotPaused\nreturns (bool _executed)\n{\n(bool sent1, ) = wills[_testator][_id].beneficiary.call{value: wills[_testator][_id].value}(\"\");\n        require(sent1, \"Failed to send Ether\");\n    emit logPayment(address(this), wills[_testator][_id].beneficiary, wills[_testator][_id].value);\n    \n(bool sent2, ) = msg.sender.call{value: wills[_testator][_id].reward}(\"\");\n        require(sent2, \"Failed to send Ether\");\n    emit logPayment(address(this), msg.sender, wills[_testator][_id].reward);\n\n_executed=sent1&&sent2;\nwills[_testator][_id] = wills[_testator][wills[_testator].length - 1];\ndelete wills[_testator][wills[_testator].length - 1];\nwills[_testator].pop();    \n}\n\n\nfunction getWills(address _testator)  public  view  returns(Will[] memory ) {\n//@dev Get all wills created by an address to display front-end\n      return wills[_testator];\n}\n\n\n\n}",
  "sourcePath": "C:\\Users\\user\\blockchain-developer-bootcamp-final-project\\contracts\\EtherTrust.sol",
  "compiler": {
    "name": "solc",
    "version": "0.8.0+commit.c7dfd78e.Emscripten.clang"
  },
  "schemaVersion": "3.4.3",
  "updatedAt": "2021-11-28T05:35:33.537Z",
  "networkType": "ethereum",
  "devdoc": {
    "events": {
      "willCreated(address,uint256)": {
        "details": "SafeMath is generally not needed starting with Solidity 0.8, since the compiler now has built in overflow checking."
      }
    },
    "kind": "dev",
    "methods": {
      "owner()": {
        "details": "Returns the address of the current owner."
      },
      "pause()": {
        "details": "called by the owner to pause, triggers stopped state"
      },
      "renounceOwnership()": {
        "details": "Leaves the contract without owner. It will not be possible to call `onlyOwner` functions anymore. Can only be called by the current owner. NOTE: Renouncing ownership will leave the contract without an owner, thereby removing any functionality that is only available to the owner."
      },
      "transferOwnership(address)": {
        "details": "Transfers ownership of the contract to a new account (`newOwner`). Can only be called by the current owner."
      },
      "unpause()": {
        "details": "called by the owner to unpause, returns to normal state"
      }
    },
    "version": 1
  },
  "userdoc": {
    "kind": "user",
    "methods": {},
    "version": 1
  }
}